:060000000A128A11122809
:10000800FE00030E83120313AD000408AE000A08B5
:10001800AF007F08B0000A128A111A290A128A1141
:1000280015280A128A1188220A128A11B300A0011F
:10003800A101A201A301A401A501A601A701A8018C
:10004800A901AA0183010A128A110B2A7B283F30D1
:10005800F0000030F100B2280630F0000030F10066
:10006800B2285B30F0000030F100B2284F30F000C9
:100078000030F100B2286630F0000030F100B228FC
:100088006D30F0000030F100B2287D30F000003013
:10009800F100B2280730F0000030F100B2287F30BC
:1000A800F0000030F100B2286F30F0000030F100AD
:1000B800B2287730F0000030F100B2287C30F00030
:1000C8000030F100B2283930F0000030F100B228D9
:1000D8005E30F0000030F100B2287930F0000030D6
:1000E800F100B2287130F0000030F100B228710838
:1000F800003A03198028B2287008003A03192B28FF
:10010800013A03193028033A03193528013A03192B
:100118003A28073A03193F28013A03194428033AB1
:1001280003194928013A03194E280F3A031953288D
:10013800013A03195828033A03195D28013A0319AB
:100148006228073A03196728013A03196C28033A09
:1001580003197128013A03197628B2280800F60114
:10016800F11FB728B828BF28F009F109F00A0319C8
:10017800F10AF601F60AF31FC228C328CC28F209AF
:10018800F309F20A0319F30A0130F4007408F606B9
:10019800F701F801700871040319D328D4280B2932
:1001A800F501F50AE22801300310F00DF10DFF3ECC
:1001B800031DD8280130F4007408F507F11FE5285D
:1001C800E628D72801300310F70DF80DFF3E031D70
:1001D800E72871087302031DF32870087202031CD4
:1001E800F628F728FE287008F2027108031CF303AA
:1001F800F302771401300310F10CF00CFF3E031DDD
:10020800FF280130F502031D0A290B29E628760884
:1002180003190F2910291529F709F809F70A0319ED
:10022800F80A7808F1007708F00008000C1F1D296B
:100238001E2936291F0CAB002B0C0F39053A031D5C
:100248002629272933291E08AB00AC012B08A80052
:100258002C08A9000A128A11C1210A128A118312D4
:1002680003130C130B1D39293A2944290A128A1140
:1002780082220A128A110A128A1151220A128A113A
:100288000B1C4729482965298312031306184D2991
:100298004E295629061C512952294E290130AB00F6
:1002A8002B088507861859295A296029861C5D2933
:1002B8005E295A29013085020B100508AB002B086E
:1002C800AA00831203133008FF002F088A002E08A3
:1002D80084002D0E8300FE0E7E0E0900203083164A
:1002E80003178800890183160313850103308600EC
:1002F8008701880101308900831203138501880171
:100308008701890183160313811315149514161494
:1003180096140B100F088F3960388F000F14811254
:1003280001128111011581140114ED308312031398
:100338008100831603139F131F129F128312031346
:100348001F083F3940389F001F08C33914389F00E1
:100358001F140F3083120313B100B10BB129B42954
:100368000B118B160B108B158B17831203130C13A1
:10037800831603130C170B170800FC01FD010F303F
:10038800831203132805F90000302905FA007C08B8
:10039800FB007B07203E8400790883138000840AD1
:1003A8007A0880001030F0000030F1007C08F90075
:1003B8007907203E84000008FA00840A0008FB0040
:1003C8007A082802F2007B08031C7B0A2902F30042
:1003D8000A128A11B3200A128A11710883120313B0
:1003E800A9007008A8000130FC070318FD0A0030B6
:1003F800FD077D08803AFF0080307F02031D062A32
:1004080003307C02031C092A0A2AC32908000A129D
:100418008A1172210A128A11831203139F149F18DA
:10042800162A172A3B2A1F0CB200320C0F39063A3B
:10043800031D1F2A202A2C2A1F08C33914389F009D
:100448000F3083120313B200B20B282A2B2A312A49
:100458001F08C33918389F00242A0F30831203134A
:10046800B200B20B352A382A831203139F142908C5
:10047800803A803C031D422A28082A020318452A8C
:10048800462A4A2A831203130915132A83120313CF
:100498000911132A0A128A11122883120313330826
:1004A80088003303031D592A5A2A6C2A2108F100AF
:1004B8002008F0000A128A112A200A128A117008EC
:1004C8008312031387000230F2007208B300812AF6
:1004D80002303306031D712A722A812A2308F1008B
:1004E8002208F0000A128A112A200A128A117008BA
:1004F800831203138700B301B30A08000B11ED3010
:0A0508008312031381000800013480
:04400E00D420FF3F7C
:00000001FF
