:060000000A128A11122809
:10000800FE00030E83120313AC000408AD000A08B7
:10001800AE007F08AF000A128A11C6290A128A1197
:1000280015280A128A117B220A128A11B200A0012D
:10003800A101A201A301A401A501A601A701A8018C
:10004800A901AA0183010A128A11072A7B283F30D5
:10005800F0000030F100B2280630F0000030F10066
:10006800B2285B30F0000030F100B2284F30F000C9
:100078000030F100B2286630F0000030F100B228FC
:100088006D30F0000030F100B2287D30F000003013
:10009800F100B2280730F0000030F100B2287F30BC
:1000A800F0000030F100B2286F30F0000030F100AD
:1000B800B2287730F0000030F100B2287C30F00030
:1000C8000030F100B2283930F0000030F100B228D9
:1000D8005E30F0000030F100B2287930F0000030D6
:1000E800F100B2287130F0000030F100B228710838
:1000F800003A03198028B2287008003A03192B28FF
:10010800013A03193028033A03193528013A03192B
:100118003A28073A03193F28013A03194428033AB1
:1001280003194928013A03194E280F3A031953288D
:10013800013A03195828033A03195D28013A0319AB
:100148006228073A03196728013A03196C28033A09
:1001580003197128013A03197628B2280800F60114
:10016800F11FB728B828BF28F009F109F00A0319C8
:10017800F10AF601F60AF31FC228C328CC28F209AF
:10018800F309F20A0319F30A0130F4007408F606B9
:10019800F701F801700871040319D328D4280B2932
:1001A800F501F50AE22801300310F00DF10DFF3ECC
:1001B800031DD8280130F4007408F507F11FE5285D
:1001C800E628D72801300310F70DF80DFF3E031D70
:1001D800E72871087302031DF32870087202031CD4
:1001E800F628F728FE287008F2027108031CF303AA
:1001F800F302771401300310F10CF00CFF3E031DDD
:10020800FF280130F502031D0A290B29E628760884
:1002180003190F2910291529F709F809F70A0319ED
:10022800F80A7808F1007708F00008008312031331
:100238001F0CF900790C0F39083A031D24292529C8
:1002480075291E08F900FA017908A8007A08A9009A
:10025800FC01FD010F30831203132805F90000305B
:100268002905FA007C08FB007B07203E84007908FA
:1002780083138000840A7A0880001030F000003070
:10028800F1007C08F9007907203E84000008FA0094
:10029800840A0008FB007A082802F2007B08031C85
:1002A8007B0A2902F3000A128A11B3200A128A1162
:1002B800710883120313A9007008A8000130FC0715
:1002C8000318FD0A0030FD077D08803AFF008030E2
:1002D8007F02031D712903307C02031C74297529D0
:1002E8002E29831203130C130800831603178801A1
:1002F8008901831603138501073086008701880169
:1003080089018312031385018801870189018316F6
:100318000313811315149514161496140B100F0853
:100328008F3960388F000F14811201128111011565
:1003380081140114ED308312031381008316031313
:100348009F131F129F12831203131F083F3940384F
:100358009F001F08C33914389F001F140F308312E1
:100368000313B000B00BB629B9290B118B160B106B
:100378008B158B17831203130C13831603130C1797
:100388000B1708000C1FC929CA29CF290A128A117C
:100398001A210A128A110B1DD229D329DD290A1222
:1003A8008A1175220A128A110A128A1144220A1223
:1003B8008A110B1CE029E129FA2983120313061874
:1003C800E629E729EF29061CEA29EB29E729013064
:1003D800AB002B0885078618F229F329F929861C12
:1003E800F629F729F329013085020B10831203132C
:1003F8002F08FF002E088A002D0884002C0E830089
:10040800FE0E7E0E09000A128A1179210A128A113B
:10041800831203139F149F18122A132A372A1F0CBA
:10042800B100310C0F39093A031D1B2A1C2A282A4E
:100438001F08C33920389F000F3083120313B100FF
:10044800B10B242A272A2D2A1F08C33924389F00D4
:10045800202A0F3083120313B100B10B312A342A3A
:10046800831203139F141E08050203183C2A3D2A11
:100478003F2A09140F2A09100F2A0A128A11122872
:1004880083120313320888003203031D4C2A4D2AB5
:100498005F2A2108F1002008F0000A128A112A2098
:1004A8000A128A1170088312031387000230F200BF
:1004B8007208B200742A02303206031D642A652AC3
:1004C800742A2308F1002208F0000A128A112A204F
:1004D8000A128A117008831203138700B201B20A44
:1004E80008000B11ED30831203138100080001345A
:04400E00D420FF3F7C
:00000001FF
