:060000000A128A11122809
:10000800FE00030E83120313B0000408B1000A08AF
:10001800B2007F08B3000A128A11AC290A128A11A9
:1000280015280A128A1151220A128A11B600A00153
:10003800A101A201A301A401A501A601A701A8018C
:10004800A901AA01AB01AC01AD0183010A128A1111
:10005800E6297E283F30F0000030F100B528063050
:10006800F0000030F100B5285B30F0000030F100FE
:10007800B5284F30F0000030F100B5286630F000A8
:100088000030F100B5286D30F0000030F100B528DF
:100098007D30F0000030F100B5280730F000003066
:1000A800F100B5287F30F0000030F100B5286F303E
:1000B800F0000030F100B5287730F0000030F10092
:1000C800B5287C30F0000030F100B5283930F00058
:1000D8000030F100B5285E30F0000030F100B5289E
:1000E8007930F0000030F100B5287130F0000030B0
:1000F800F100B5287108003A03198328B52870085B
:10010800003A03192E28013A03193328033A031930
:100118003828013A03193D28073A03194228013AB9
:1001280003194728033A03194C28013A031951289F
:100138000F3A03195628013A03195B28033A0319A1
:100148006028013A03196528073A03196A28013A11
:1001580003196F28033A03197428013A03197928F7
:10016800B5280800F601F11FBA28BB28C228F009F3
:10017800F109F00A0319F10AF601F60AF31FC52876
:10018800C628CF28F209F309F20A0319F30A013045
:10019800F4007408F606F701F801700871040319F1
:1001A800D628D7280E29F501F50AE52801300310CD
:1001B800F00DF10DFF3E031DDB280130F40074083B
:1001C800F507F11FE828E928DA2801300310F70DB0
:1001D800F80DFF3E031DEA2871087302031DF62877
:1001E80070087202031CF928FA2801297008F20223
:1001F8007108031CF303F302771401300310F10CA8
:10020800F00CFF3E031D02290130F502031D0D29E4
:100218000E29E92876080319122913291829F7093C
:10022800F809F70A0319F80A7808F1007708F000C6
:100238000800FC01FD010F30831203132805F900A3
:1002480000302905FA007C08FB007B07203E84006B
:10025800790883138000840A7A0880001030F0003F
:100268000030F1007C08F9007907203E840000087E
:10027800FA00840A0008FB007A082802F2007B08CA
:10028800031C7B0A2902F3000A128A11B6200A12FB
:100298008A11710883120313A9007008A80001309D
:1002A800FC070318FD0A0030FD077D08803AFF00AF
:1002B80080307F02031D622903307C02031C6529FC
:1002C80066291F2908002030831603178800890132
:1002D8008316031385018701880101308900831281
:1002E80003138501880187018901831603130F0809
:1002F8008F3960388F000F14811201128111011596
:1003080081140114ED308312031381008316031343
:100318009F131F129F12831203131F083F3940387F
:100328009F001F08C33914389F001F140F30831211
:100338000313B400B40B9E29A1290B118B168B173C
:10034800831203130C13831603130C170B170800DF
:100358000C1FAF29B029CB291F0CAE002E0C0F396A
:10036800053A031DB829B929C6291E08AE00AF01F0
:100378002E08A8002F08A9000A128A111D210A12A6
:100388008A11C8291E088600831203130C130B1D3B
:10039800CE29CF29D9290A128A114B220A128A1189
:1003A8000A128A111A220A128A11831203133308B5
:1003B800FF0032088A0031088400300E8300FE0EE8
:1003C8007E0E09000A128A1167210A128A11831205
:1003D80003139F149F18F129F229EE291F0CB50069
:1003E800350C0F39063A031DFA29FB29072A1F087D
:1003F800C33914389F000F3083120313B500B50BAF
:10040800032A062A0C2A1F08C33918389F00FF2917
:100418000F3083120313B500B50B102A132A831269
:1004280003139F14EE290A128A1112288312031348
:10043800360888003603031D222A232A352A210874
:10044800F1002008F0000A128A112D200A128A11E0
:1004580070088312031387000230F2007208B60096
:100468004A2A02303606031D3A2A3B2A4A2A23081A
:10047800F1002208F0000A128A112D200A128A11AE
:100488007008831203138700B601B60A08000B111F
:0C049800ED3083120313810008000134D2
:04400E00D420FF3F7C
:00000001FF
