:060000000A128A11122809
:10000800FE00030E83120313AC000408AD000A08B7
:10001800AE007F08AF000A128A11A8290A128A11B5
:1000280015280A128A114D220A128A11B200A0015B
:10003800A101A201A301A401A501A601A701A8018C
:10004800A90183010A128A11E2297A283F30F000B7
:100058000030F100B1280630F0000030F100B1287E
:100068005B30F0000030F100B1284F30F000003074
:10007800F100B1286630F0000030F100B1286D3091
:10008800F0000030F100B1287D30F0000030F100C0
:10009800B1280730F0000030F100B1287F30F000BF
:1000A8000030F100B1286F30F0000030F100B128C5
:1000B8007730F0000030F100B1287C30F0000030DB
:1000C800F100B1283930F0000030F100B1285E307D
:1000D800F0000030F100B1287930F0000030F10074
:1000E800B1287130F0000030F100B1287108003AF1
:1000F80003197F28B1287008003A03192A28013A01
:1001080003192F28033A03193428013A0319392807
:10011800073A03193E28013A03194328033A0319F9
:100128004828013A03194D280F3A03195228013A71
:1001380003195728033A03195C28013A031961285F
:10014800073A03196628013A03196B28033A031979
:100158007028013A03197528B1280800F601F11F23
:10016800B628B728BE28F009F109F00A0319F10AE0
:10017800F601F60AF31FC128C228CB28F209F309B1
:10018800F20A0319F30A0130F4007408F606F701BD
:10019800F801700871040319D228D3280A29F50137
:1001A800F50AE12801300310F00DF10DFF3E031DA3
:1001B800D7280130F4007408F507F11FE428E52872
:1001C800D62801300310F70DF80DFF3E031DE62871
:1001D80071087302031DF22870087202031CF528C7
:1001E800F628FD287008F2027108031CF303F302D5
:1001F800771401300310F10CF00CFF3E031DFE28AC
:100208000130F502031D09290A29E5287608031992
:100218000E290F291429F709F809F70A0319F80A0A
:100228007808F1007708F0000800FC01FD010F30A4
:10023800831203132805F90000302905FA007C0809
:10024800FB007B07203E8400790883138000840A22
:100258007A0880001030F0000030F1007C08F900C6
:100268007907203E84000008FA00840A0008FB0091
:100278007A082802F2007B08031C7B0A2902F30093
:100288000A128A11B2200A128A1171088312031302
:10029800A9007008A8000130FC070318FD0A003007
:1002A800FD077D08803AFF0080307F02031D5E292C
:1002B80003307C02031C612962291B2908002030B5
:1002C80083160317880089018316031385018701A4
:1002D8008801013089008312031385018801870191
:1002E8008901831603130F088F3960388F000F14A4
:1002F800811201128111011581140114ED3083124C
:1003080003138100831603139F131F129F12831276
:1003180003131F083F3940389F001F08C33914389A
:100328009F001F140F3083120313B000B00B9A29DB
:100338009D290B118B168B17831203130C1383162D
:1003480003130C170B1708000C1FAB29AC29C7297E
:100358001F0CAA002A0C0F39053A031DB429B52928
:10036800C2291E08AA00AB012A08A8002B08A90068
:100378000A128A1119210A128A11C4291E08860034
:10038800831203130C130B1DCA29CB29D5290A1272
:100398008A1147220A128A110A128A1116220A128F
:1003A8008A11831203132F08FF002E088A002D08D4
:1003B80084002C0E8300FE0E7E0E09000A128A119C
:1003C80063210A128A11831203139F149F18ED29BF
:1003D800EE29EA291F0CB100310C0F39063A031D2A
:1003E800F629F729032A1F08C33914389F000F304C
:1003F80083120313B100B10BFF29022A082A1F0830
:10040800C33918389F00FB290F3083120313B1003A
:10041800B10B0C2A0F2A831203139F14EA290A121C
:100428008A11122883120313320888003203031D2D
:100438001E2A1F2A312A2108F1002008F0000A127A
:100448008A1129200A128A1170088312031387005F
:100458000230F2007208B200462A02303206031D4A
:10046800362A372A462A2308F1002208F0000A1201
:100478008A1129200A128A1170088312031387002F
:10048800B201B20A08000B11ED3083120313810088
:040498000800013423
:04400E00D420FF3F7C
:00000001FF
