:060000000A128A11122809
:10000800FE00030E83120313B1000408B2000A08AD
:10001800B3007F08B4000A128A117F2A0A128A11D3
:1000280015280A128A11F4220A128A11B700A001AF
:10003800A101A201A301A401A501A601A701A8018C
:10004800A901AA01AB01AC01AD01AE0183010A12FD
:100058008A11BC2AF601F11F322833283A28F00900
:10006800F109F00A0319F10AF601F60AF31F3D280F
:100078003E284728F209F309F20A0319F30A013066
:10008800F4007408F606F701F80170087104031902
:100098004E284F288628F501F50A5D2801300310FF
:1000A800F00DF10DFF3E031D53280130F4007408D4
:1000B800F507F11F60286128522801300310F70D59
:1000C800F80DFF3E031D622871087302031D6E2898
:1000D80070087202031C7128722879287008F202CD
:1000E8007108031CF303F302771401300310F10CB9
:1000F800F00CFF3E031D7A280130F502031D852808
:1001080086286128760803198A288B289028F709F9
:10011800F809F70A0319F80A7808F1007708F000D7
:100128000800F601F31F99289A28A128F209F30973
:10013800F20A0319F30AF601F60AF11FA428A52802
:10014800AA28F009F109F00A0319F10A70087104E4
:100158000319AF28B028DF28F501F50ABE280130B9
:100168000310F00DF10DFF3E031DB4280130F4001B
:100178007408F507F11FC128C228B3287108730253
:10018800031DC82870087202031CCB28CC28D2286B
:100198007008F2027108031CF303F3020130031024
:1001A800F10CF00CFF3E031DD3280130F502031DAE
:1001B800DE28DF28C22876080319E328E428E9287E
:1001C800F209F309F20A0319F30A7308F100720835
:1001D800F00008002129BF30F0000030F100462966
:1001E8008630F0000030F1004629DB30F0000030A6
:1001F800F1004629CF30F0000030F1004629E63002
:10020800F0000030F1004629ED30F0000030F10038
:100218004629FD30F0000030F10046298730F00013
:100228000030F1004629FF30F0000030F100462987
:10023800EF30F0000030F10046297108003A031948
:10024800262946297008003A0319EF28013A0319AC
:10025800F428033A0319F928013A0319FE28073A42
:1002680003190329013A03190829033A03190D2927
:10027800013A031912290F3A03191729013A0319E8
:100288001C29462908007A293F30F0000030F10087
:100298009F290630F0000030F1009F295B30F00004
:1002A8000030F1009F294F30F0000030F1009F2905
:1002B8006630F0000030F1009F296D30F00000300A
:1002C800F1009F297D30F0000030F1009F290730B0
:1002D800F0000030F1009F297F30F0000030F1007D
:1002E8009F296F30F0000030F1009F297108003A13
:1002F80003197F299F297008003A03194829013AF0
:1003080003194D29033A03195229013A03195729A8
:10031800073A03195C29013A03196129033A0319B9
:100328006629013A03196B290F3A03197029013A12
:10033800031975299F290800FC01FD010A30F00006
:100348000030F100831203132B08F3002A08F2008F
:100358000A128A1195200A128A117C08F900790775
:10036800203E8400700883138000840A710880008E
:100378000A30F0000030F1007C08F9007907203ECF
:1003880084000008FA00840A0008FB007A08831237
:1003980003132A02F2007B08031C7B0A2B02F300DA
:1003A8000A128A112E200A128A1171088312031365
:1003B800AB007008AA000130FC070318FD0A0030E2
:1003C800FD077D08803AFF0080307F02031DEE297B
:1003D80003307C02031CF129F229A22908008312A8
:1003E8000313370888003703031DFB29FC290E2A4D
:1003F8002108F1002008F0000A128A1147210A1288
:100408008A1170088312031387000230F200720801
:10041800B7003B2A02303706031D132A142A262A5E
:100428002308F1002208F0000A128A1147210A1253
:100438008A1170088312031387000430F2007208CF
:10044800B7003B2A04303706031D2B2A2C2A3B2AE7
:100458002508F1002408F0000A128A11EE200A1279
:100468008A117008831203138700B701B70A0800BE
:10047800033083160317880089010330831603139A
:10048800850087018801890183120313850188018A
:1004980087018901831603130F088F3960388F008D
:1004A8000F14811201128111011581140114ED300C
:1004B800831203138100831603139F131F129F12C5
:1004C800831203131F083F3940389F00C3309F052C
:1004D8001F140F3083120313B500B50B712A742A49
:1004E8000B118B168B17831203130C13831603132C
:1004F8000C170B1708000C1F822A832AA12A1F0C2D
:10050800AF002F0C0F39013A031D8B2A8C2A9C2A25
:100518001E08AF00B0010310AF0DB00D2F08AA00E0
:100528003008AB000A128A11A0210A128A119E2AE9
:100538001E088600831203130C130B1DA42AA52A78
:10054800AF2A0A128A11EE220A128A110A128A1195
:10055800F3210A128A11831203133408FF003308A7
:100568008A0032088400310E8300FE0E7E0E0900D8
:100578000A128A113C220A128A11831203139F1449
:100588009F18C72AC82AC42A1F0CB600360C0F3970
:10059800013A031DD02AD12ADB2AC3309F050F3028
:1005A80083120313B600B60BD72ADA2AE02A1F08EB
:1005B800C33904389F00D32A0F3083120313B600BF
:1005C800B60BE42AE72A831203139F14C42A0A12DB
:1005D8008A1112280B11ED308312031381000800D1
:0205E8000134DC
:04400E00D420FF3F7C
:00000001FF
