:060000000A128A110E280D
:10000800FE00030EF5000408F6000A08F7000A12BD
:100018008A1199290A128A111128F801F901FA019D
:10002800FB01FC0183010A128A112D296B283F303C
:10003800F0000030F100A2280630F0000030F10096
:10004800A2285B30F0000030F100A2284F30F00009
:100058000030F100A2286630F0000030F100A2283C
:100068006D30F0000030F100A2287D30F000003043
:10007800F100A2280730F0000030F100A2287F30FC
:10008800F0000030F100A2286F30F0000030F100DD
:10009800A2287730F0000030F100A2287C30F00070
:1000A8000030F100A2283930F0000030F100A22819
:1000B8005E30F0000030F100A2287930F000003006
:1000C800F100A2287130F0000030F100A228710878
:1000D800003A03197028A2287008003A03191B284F
:1000E800013A03192028033A03192528013A03196C
:1000F8002A28073A03192F28013A03193428033A02
:1001080003193928013A03193E280F3A03194328DD
:10011800013A03194828033A03194D28013A0319EB
:100128005228073A03195728013A03195C28033A59
:1001380003196128013A03196628A228080020300B
:100148008316031788008901831603138601850126
:100158008701880101308900831203138501860114
:100168008801870189017030831603138F040F14E7
:100178008112011281150111811001109C30831226
:1001880003138100831603139F131F129F128312F8
:1001980003131F083F3980389F001F08C3391438DC
:1001A8009F001F14843083120313A000A00BDA28C9
:1001B80000000B118B168B17831203130C13831675
:1001C80003130C170B17080010307A067B04031D65
:1001D800EE28EF28F728FA01FB010130F807031889
:1001E800F90A0030F9077A0A031DFE287B0A031D65
:1001F800FE28FF2809290F30FA000030FB00FF30E5
:10020800F8070318F90AFF30F9077A0A031D1029BD
:100218007B0A031D102911292129780A031D182991
:10022800790A031D1829192921290F30FA000030ED
:10023800FB000F30F8000030F90010307806790420
:10024800031D272928292C29FA01FB01F801F901A6
:1002580008000A128A11A3200A128A1183120313B2
:100268009F14831203139F183A293B295F291F0CF7
:10027800A100210C0F39063A031D432944295029AE
:100288001F08C33914389F00203083120313A100BC
:10029800A10B4C29000055291F08C33918389F00A5
:1002A8004829203083120313A100A10B592900000B
:1002B800831203139F140A128A11E8200A128A1162
:1002C80035290A128A110E287C0883120313880024
:1002D8007C03031D7029712983297B08F1007A08A2
:1002E800F0000A128A111A200A128A117008831261
:1002F800031387000230F2007208FC0098290230CC
:100308007C06031D8829892998297908F10078082D
:10031800F0000A128A111A200A128A117008831230
:1003280003138700FC01FC0A0800831203130C1F47
:100338009E299F29B0291F0CF300730C0F39053A29
:10034800031DA729A829AF291E08F300F401730883
:10035800FA007408FB000C130B1DB329B429BE293D
:100368000A128A11C7210A128A110A128A116821EF
:100378000A128A1177088A0076088400750E8300AD
:10038800FE0E7E0E09000B119C30831203138100B0
:0203980008005B
:04400E00D420FF3F7C
:00000001FF
